{
  "contractName": "Ucoin",
  "abi": [
    {
      "inputs": [],
      "stateMutability": "nonpayable",
      "type": "constructor"
    },
    {
      "anonymous": false,
      "inputs": [
        {
          "indexed": true,
          "internalType": "address",
          "name": "_owner",
          "type": "address"
        },
        {
          "indexed": true,
          "internalType": "address",
          "name": "_spender",
          "type": "address"
        },
        {
          "indexed": false,
          "internalType": "uint256",
          "name": "_value",
          "type": "uint256"
        }
      ],
      "name": "Apv",
      "type": "event"
    },
    {
      "anonymous": false,
      "inputs": [
        {
          "indexed": true,
          "internalType": "address",
          "name": "_from",
          "type": "address"
        },
        {
          "indexed": true,
          "internalType": "address",
          "name": "_to",
          "type": "address"
        },
        {
          "indexed": false,
          "internalType": "uint256",
          "name": "_value",
          "type": "uint256"
        }
      ],
      "name": "Tfer",
      "type": "event"
    },
    {
      "inputs": [
        {
          "internalType": "address",
          "name": "",
          "type": "address"
        },
        {
          "internalType": "address",
          "name": "",
          "type": "address"
        }
      ],
      "name": "AprovalTime",
      "outputs": [
        {
          "internalType": "uint256",
          "name": "",
          "type": "uint256"
        }
      ],
      "stateMutability": "view",
      "type": "function",
      "constant": true
    },
    {
      "inputs": [
        {
          "internalType": "address",
          "name": "",
          "type": "address"
        },
        {
          "internalType": "address",
          "name": "",
          "type": "address"
        }
      ],
      "name": "allowance",
      "outputs": [
        {
          "internalType": "uint256",
          "name": "",
          "type": "uint256"
        }
      ],
      "stateMutability": "view",
      "type": "function",
      "constant": true
    },
    {
      "inputs": [
        {
          "internalType": "address",
          "name": "",
          "type": "address"
        }
      ],
      "name": "balanceOf",
      "outputs": [
        {
          "internalType": "uint256",
          "name": "",
          "type": "uint256"
        }
      ],
      "stateMutability": "view",
      "type": "function",
      "constant": true
    },
    {
      "inputs": [],
      "name": "decimals",
      "outputs": [
        {
          "internalType": "uint8",
          "name": "",
          "type": "uint8"
        }
      ],
      "stateMutability": "view",
      "type": "function",
      "constant": true
    },
    {
      "inputs": [],
      "name": "minter",
      "outputs": [
        {
          "internalType": "address",
          "name": "",
          "type": "address"
        }
      ],
      "stateMutability": "view",
      "type": "function",
      "constant": true
    },
    {
      "inputs": [],
      "name": "name",
      "outputs": [
        {
          "internalType": "string",
          "name": "",
          "type": "string"
        }
      ],
      "stateMutability": "view",
      "type": "function",
      "constant": true
    },
    {
      "inputs": [],
      "name": "symbol",
      "outputs": [
        {
          "internalType": "string",
          "name": "",
          "type": "string"
        }
      ],
      "stateMutability": "view",
      "type": "function",
      "constant": true
    },
    {
      "inputs": [],
      "name": "totalSupply",
      "outputs": [
        {
          "internalType": "uint256",
          "name": "",
          "type": "uint256"
        }
      ],
      "stateMutability": "view",
      "type": "function",
      "constant": true
    },
    {
      "inputs": [
        {
          "internalType": "address",
          "name": "_to",
          "type": "address"
        },
        {
          "internalType": "uint256",
          "name": "_value",
          "type": "uint256"
        }
      ],
      "name": "Transfer",
      "outputs": [
        {
          "internalType": "bool",
          "name": "success",
          "type": "bool"
        }
      ],
      "stateMutability": "nonpayable",
      "type": "function"
    },
    {
      "inputs": [
        {
          "internalType": "address",
          "name": "_spender",
          "type": "address"
        },
        {
          "internalType": "uint256",
          "name": "_value",
          "type": "uint256"
        }
      ],
      "name": "Aprove",
      "outputs": [
        {
          "internalType": "bool",
          "name": "success",
          "type": "bool"
        }
      ],
      "stateMutability": "nonpayable",
      "type": "function"
    },
    {
      "inputs": [
        {
          "internalType": "address",
          "name": "_from",
          "type": "address"
        },
        {
          "internalType": "address",
          "name": "_to",
          "type": "address"
        },
        {
          "internalType": "uint256",
          "name": "_value",
          "type": "uint256"
        }
      ],
      "name": "transferFrom",
      "outputs": [
        {
          "internalType": "bool",
          "name": "success",
          "type": "bool"
        }
      ],
      "stateMutability": "nonpayable",
      "type": "function"
    }
  ],
  "bytecode": "0x60806040526040518060400160405280600581526020017f55636f696e000000000000000000000000000000000000000000000000000000815250600090805190602001906200005192919062000165565b506040518060400160405280600481526020017f5553445500000000000000000000000000000000000000000000000000000000815250600190805190602001906200009f92919062000165565b5069d3c21bcecceda10000006002556012600360006101000a81548160ff021916908360ff160217905550348015620000d757600080fd5b50600254600460003373ffffffffffffffffffffffffffffffffffffffff1673ffffffffffffffffffffffffffffffffffffffff1681526020019081526020016000208190555033600360016101000a81548173ffffffffffffffffffffffffffffffffffffffff021916908373ffffffffffffffffffffffffffffffffffffffff1602179055506200027a565b828054620001739062000244565b90600052602060002090601f016020900481019282620001975760008555620001e3565b82601f10620001b257805160ff1916838001178555620001e3565b82800160010185558215620001e3579182015b82811115620001e2578251825591602001919060010190620001c5565b5b509050620001f29190620001f6565b5090565b5b8082111562000211576000816000905550600101620001f7565b5090565b7f4e487b7100000000000000000000000000000000000000000000000000000000600052602260045260246000fd5b600060028204905060018216806200025d57607f821691505b6020821081141562000274576200027362000215565b5b50919050565b6113f8806200028a6000396000f3fe608060405234801561001057600080fd5b50600436106100a95760003560e01c8063313ce56711610071578063313ce56714610168578063325905c41461018657806369ca02dd146101b657806370a08231146101e657806395d89b4114610216578063dd62ed3e14610234576100a9565b806306fdde03146100ae57806307546172146100cc57806314868b82146100ea57806318160ddd1461011a57806323b872dd14610138575b600080fd5b6100b6610264565b6040516100c39190610ce6565b60405180910390f35b6100d46102f2565b6040516100e19190610d49565b60405180910390f35b61010460048036038101906100ff9190610d95565b610318565b6040516101119190610dee565b60405180910390f35b61012261033d565b60405161012f9190610dee565b60405180910390f35b610152600480360381019061014d9190610e35565b610343565b60405161015f9190610ea3565b60405180910390f35b610170610893565b60405161017d9190610eda565b60405180910390f35b6101a0600480360381019061019b9190610ef5565b6108a6565b6040516101ad9190610ea3565b60405180910390f35b6101d060048036038101906101cb9190610ef5565b610a19565b6040516101dd9190610ea3565b60405180910390f35b61020060048036038101906101fb9190610f35565b610b82565b60405161020d9190610dee565b60405180910390f35b61021e610b9a565b60405161022b9190610ce6565b60405180910390f35b61024e60048036038101906102499190610d95565b610c28565b60405161025b9190610dee565b60405180910390f35b6000805461027190610f91565b80601f016020809104026020016040519081016040528092919081815260200182805461029d90610f91565b80156102ea5780601f106102bf576101008083540402835291602001916102ea565b820191906000526020600020905b8154815290600101906020018083116102cd57829003601f168201915b505050505081565b600360019054906101000a900473ffffffffffffffffffffffffffffffffffffffff1681565b6006602052816000526040600020602052806000526040600020600091509150505481565b60025481565b60003373ffffffffffffffffffffffffffffffffffffffff16600360019054906101000a900473ffffffffffffffffffffffffffffffffffffffff1673ffffffffffffffffffffffffffffffffffffffff16146103d5576040517f08c379a00000000000000000000000000000000000000000000000000000000081526004016103cc9061100f565b60405180910390fd5b60008211610418576040517f08c379a000000000000000000000000000000000000000000000000000000000815260040161040f9061107b565b60405180910390fd5b600460008573ffffffffffffffffffffffffffffffffffffffff1673ffffffffffffffffffffffffffffffffffffffff1681526020019081526020016000205482111561049a576040517f08c379a00000000000000000000000000000000000000000000000000000000081526004016104919061110d565b60405180910390fd5b600560008573ffffffffffffffffffffffffffffffffffffffff1673ffffffffffffffffffffffffffffffffffffffff16815260200190815260200160002060003373ffffffffffffffffffffffffffffffffffffffff1673ffffffffffffffffffffffffffffffffffffffff16815260200190815260200160002054821115610559576040517f08c379a00000000000000000000000000000000000000000000000000000000081526004016105509061119f565b60405180910390fd5b6000600660003373ffffffffffffffffffffffffffffffffffffffff1673ffffffffffffffffffffffffffffffffffffffff16815260200190815260200160002060008673ffffffffffffffffffffffffffffffffffffffff1673ffffffffffffffffffffffffffffffffffffffff1681526020019081526020016000205411610618576040517f08c379a000000000000000000000000000000000000000000000000000000000815260040161060f90611231565b60405180910390fd5b62015180600660003373ffffffffffffffffffffffffffffffffffffffff1673ffffffffffffffffffffffffffffffffffffffff16815260200190815260200160002060008673ffffffffffffffffffffffffffffffffffffffff1673ffffffffffffffffffffffffffffffffffffffff168152602001908152602001600020546106a39190611280565b42116106e4576040517f08c379a00000000000000000000000000000000000000000000000000000000081526004016106db9061136e565b60405180910390fd5b81600460008673ffffffffffffffffffffffffffffffffffffffff1673ffffffffffffffffffffffffffffffffffffffff1681526020019081526020016000206000828254610733919061138e565b9250508190555081600460008573ffffffffffffffffffffffffffffffffffffffff1673ffffffffffffffffffffffffffffffffffffffff16815260200190815260200160002060008282546107899190611280565b9250508190555081600560003373ffffffffffffffffffffffffffffffffffffffff1673ffffffffffffffffffffffffffffffffffffffff16815260200190815260200160002060008673ffffffffffffffffffffffffffffffffffffffff1673ffffffffffffffffffffffffffffffffffffffff168152602001908152602001600020600082825461081c919061138e565b925050819055508273ffffffffffffffffffffffffffffffffffffffff168473ffffffffffffffffffffffffffffffffffffffff167f31d62db42600785ec3c7fb8def826c54b69aefc75a82810ec922720dae65c6e9846040516108809190610dee565b60405180910390a3600190509392505050565b600360009054906101000a900460ff1681565b600081600560003373ffffffffffffffffffffffffffffffffffffffff1673ffffffffffffffffffffffffffffffffffffffff16815260200190815260200160002060008573ffffffffffffffffffffffffffffffffffffffff1673ffffffffffffffffffffffffffffffffffffffff168152602001908152602001600020819055508273ffffffffffffffffffffffffffffffffffffffff163373ffffffffffffffffffffffffffffffffffffffff167f31fd1cfb1ac358fa470c36105e0bdcad855531188524e8c478123a403e0a08fe846040516109869190610dee565b60405180910390a342600660003373ffffffffffffffffffffffffffffffffffffffff1673ffffffffffffffffffffffffffffffffffffffff16815260200190815260200160002060008573ffffffffffffffffffffffffffffffffffffffff1673ffffffffffffffffffffffffffffffffffffffff168152602001908152602001600020819055506001905092915050565b6000600460003373ffffffffffffffffffffffffffffffffffffffff1673ffffffffffffffffffffffffffffffffffffffff16815260200190815260200160002054821115610a6757600080fd5b81600460003373ffffffffffffffffffffffffffffffffffffffff1673ffffffffffffffffffffffffffffffffffffffff1681526020019081526020016000206000828254610ab6919061138e565b9250508190555081600460008573ffffffffffffffffffffffffffffffffffffffff1673ffffffffffffffffffffffffffffffffffffffff1681526020019081526020016000206000828254610b0c9190611280565b925050819055508273ffffffffffffffffffffffffffffffffffffffff163373ffffffffffffffffffffffffffffffffffffffff167f31d62db42600785ec3c7fb8def826c54b69aefc75a82810ec922720dae65c6e984604051610b709190610dee565b60405180910390a36001905092915050565b60046020528060005260406000206000915090505481565b60018054610ba790610f91565b80601f0160208091040260200160405190810160405280929190818152602001828054610bd390610f91565b8015610c205780601f10610bf557610100808354040283529160200191610c20565b820191906000526020600020905b815481529060010190602001808311610c0357829003601f168201915b505050505081565b6005602052816000526040600020602052806000526040600020600091509150505481565b600081519050919050565b600082825260208201905092915050565b60005b83811015610c87578082015181840152602081019050610c6c565b83811115610c96576000848401525b50505050565b6000601f19601f8301169050919050565b6000610cb882610c4d565b610cc28185610c58565b9350610cd2818560208601610c69565b610cdb81610c9c565b840191505092915050565b60006020820190508181036000830152610d008184610cad565b905092915050565b600073ffffffffffffffffffffffffffffffffffffffff82169050919050565b6000610d3382610d08565b9050919050565b610d4381610d28565b82525050565b6000602082019050610d5e6000830184610d3a565b92915050565b600080fd5b610d7281610d28565b8114610d7d57600080fd5b50565b600081359050610d8f81610d69565b92915050565b60008060408385031215610dac57610dab610d64565b5b6000610dba85828601610d80565b9250506020610dcb85828601610d80565b9150509250929050565b6000819050919050565b610de881610dd5565b82525050565b6000602082019050610e036000830184610ddf565b92915050565b610e1281610dd5565b8114610e1d57600080fd5b50565b600081359050610e2f81610e09565b92915050565b600080600060608486031215610e4e57610e4d610d64565b5b6000610e5c86828701610d80565b9350506020610e6d86828701610d80565b9250506040610e7e86828701610e20565b9150509250925092565b60008115159050919050565b610e9d81610e88565b82525050565b6000602082019050610eb86000830184610e94565b92915050565b600060ff82169050919050565b610ed481610ebe565b82525050565b6000602082019050610eef6000830184610ecb565b92915050565b60008060408385031215610f0c57610f0b610d64565b5b6000610f1a85828601610d80565b9250506020610f2b85828601610e20565b9150509250929050565b600060208284031215610f4b57610f4a610d64565b5b6000610f5984828501610d80565b91505092915050565b7f4e487b7100000000000000000000000000000000000000000000000000000000600052602260045260246000fd5b60006002820490506001821680610fa957607f821691505b60208210811415610fbd57610fbc610f62565b5b50919050565b7f596f75206d75737420626520746865206d696e74657200000000000000000000600082015250565b6000610ff9601683610c58565b915061100482610fc3565b602082019050919050565b6000602082019050818103600083015261102881610fec565b9050919050565b7f796f752063616e74207472616e73666572203020616d6f756e74000000000000600082015250565b6000611065601a83610c58565b91506110708261102f565b602082019050919050565b6000602082019050818103600083015261109481611058565b9050919050565b7f796f752063616e207472616e736665722061626f766520796f7572206176616960008201527f6c61626c652062616c616e636500000000000000000000000000000000000000602082015250565b60006110f7602d83610c58565b91506111028261109b565b604082019050919050565b60006020820190508181036000830152611126816110ea565b9050919050565b7f796f752063616e20747261736e6665722061626f766520796f757220616c6c6f60008201527f77616e6365000000000000000000000000000000000000000000000000000000602082015250565b6000611189602583610c58565b91506111948261112d565b604082019050919050565b600060208201905081810360008301526111b88161117c565b9050919050565b7f796f75206d75737420617070726f766520616e20616d6f756e7420666f72207460008201527f686973207472616e73616374696f6e2066697273740000000000000000000000602082015250565b600061121b603583610c58565b9150611226826111bf565b604082019050919050565b6000602082019050818103600083015261124a8161120e565b9050919050565b7f4e487b7100000000000000000000000000000000000000000000000000000000600052601160045260246000fd5b600061128b82610dd5565b915061129683610dd5565b9250827fffffffffffffffffffffffffffffffffffffffffffffffffffffffffffffffff038211156112cb576112ca611251565b5b828201905092915050565b7f796f75206d757374207761697420323420686f7572732066726f6d206170727260008201527f6f76616c2074696d6520666f722074686973207472616e73616374696f6e207460208201527f6f20626520656666656374697665000000000000000000000000000000000000604082015250565b6000611358604e83610c58565b9150611363826112d6565b606082019050919050565b600060208201905081810360008301526113878161134b565b9050919050565b600061139982610dd5565b91506113a483610dd5565b9250828210156113b7576113b6611251565b5b82820390509291505056fea26469706673582212207218ff1ef74a15ad2f9853223fc2e863c92ec24dbb5b01da49c094b4b5d6d5e964736f6c63430008090033",
  "immutableReferences": {},
  "source": "\n//SPDX-License-Identifier: MIT\npragma solidity ^0.8.0; \n\n\ncontract Ucoin {\n    string public name = 'Ucoin';\n    string public symbol = 'USDU'; \n    uint256 public totalSupply = 1000000000000000000000000; // 1 million tokens\n    uint8 public decimals = 18; \n    address public minter;\n \n\n    event Tfer(\n        address indexed _from, \n        address indexed _to, \n        uint256 _value\n    ); \n\n    event Apv(\n        address indexed _owner, \n        address indexed _spender, \n        uint256 _value \n    ); \n\n\n\n    mapping(address => uint256) public balanceOf; \n    mapping(address =>mapping(address => uint256)) public allowance; \n    mapping(address =>mapping(address => uint256)) public AprovalTime; \n\n\n    constructor() {\n        balanceOf[msg.sender] = totalSupply; \n        minter = msg.sender; \n    }\n\n\nfunction Transfer(address _to, uint256 _value) public returns(bool success){\n    require(_value <= balanceOf[msg.sender]);\n    balanceOf[msg.sender] -= _value; \n    balanceOf[_to] += _value; \n    emit Tfer(msg.sender, _to, _value); \n    return true;  \n}\n\nfunction Aprove(address _spender, uint256 _value) public returns(bool success){\n    allowance[msg.sender][_spender] = _value;  \n    emit Apv(msg.sender, _spender, _value); \n    AprovalTime[msg.sender][_spender] = block.timestamp; \n    return true; \n}\n\nfunction transferFrom(address _from, address _to, uint256 _value) public returns (bool success) {\n    require(minter == msg.sender, 'You must be the minter'); \n    require(_value > 0 , 'you cant transfer 0 amount');\n    require(_value <= balanceOf[_from], 'you can transfer above your available balance'); \n    require(_value <= allowance[_from][msg.sender], 'you can trasnfer above your allowance'); \n    require(AprovalTime[msg.sender][_from] > 0,'you must approve an amount for this transaction first');\n    require(block.timestamp > AprovalTime[msg.sender][_from] + 24 hours,'you must wait 24 hours from aprroval time for this transaction to be effective');\n    balanceOf[_from]-= _value; \n    balanceOf[_to] += _value; \n    allowance[msg.sender][_from] -= _value; \n    emit Tfer(_from, _to, _value); \n    return true; \n    }\n}",
  "sourcePath": "/home/uwabis/myProject/defi-staking-app-starter/defi-staking-app-starter/src/contracts/Ucoin.sol",
  "compiler": {
    "name": "solc",
    "version": "0.8.9+commit.e5eed63a.Emscripten.clang"
  },
  "schemaVersion": "3.4.3",
  "updatedAt": "2021-10-03T12:06:53.508Z",
  "networkType": "ethereum",
  "devdoc": {
    "kind": "dev",
    "methods": {},
    "version": 1
  },
  "userdoc": {
    "kind": "user",
    "methods": {},
    "version": 1
  }
}